:100000000C9434000C943E000C943E000C943E0082
:100010000C943E000C943E000C943E000C943E0068
:100020000C943E000C943E000C943E000C943E0058
:100030000C943E000C943E000C943E000C943E0048
:100040000C943E000C943E000C943E000C943E0038
:100050000C943E000C943E000C943E000C943E0028
:100060000C943E000C943E0011241FBECFEFD8E04C
:10007000DEBFCDBF0E9440000C9467000C940000CE
:1000800000D000D0CDB7DEB719821A821B821C8245
:10009000209A21E019821A821B821C8289819A810E
:1000A000AB81BC8180389A41A640B10524F085B16E
:1000B000822785B9EFCF89819A81AB81BC81019676
:1000C000A11DB11D89839A83AB83BC83E7CFF894CC
:0200D000FFCF60
:00000001FF
