:100000000C9434000C943E000C943E000C943E0082
:100010000C943E000C943E000C943E000C943E0068
:100020000C943E000C943E000C943E000C943E0058
:100030000C943E000C943E000C943E000C943E0048
:100040000C943E000C943E000C943E000C943E0038
:100050000C943E000C943E000C943E000C943E0028
:100060000C943E000C943E0011241FBECFEFD8E04C
:10007000DEBFCDBF0E945F000C9466000C940000B0
:100080009091C00095FFFCCF8093C60008958091A9
:10009000C00087FFFCCF8091C60008951092C50074
:1000A00080E18093C400E0ECF0E080818260808396
:1000B00088E18093C10086E08093C20008950E9489
:1000C0004E000E9447000E944000FBCFF894FFCFF3
:00000001FF
